{"abi":[{"type":"constructor","inputs":[{"name":"initialSupply","type":"uint256","internalType":"uint256"}],"stateMutability":"nonpayable"},{"type":"function","name":"ADMIN_ROLE","inputs":[],"outputs":[{"name":"","type":"bytes32","internalType":"bytes32"}],"stateMutability":"view"},{"type":"function","name":"DEFAULT_ADMIN_ROLE","inputs":[],"outputs":[{"name":"","type":"bytes32","internalType":"bytes32"}],"stateMutability":"view"},{"type":"function","name":"ISSUER_ROLE","inputs":[],"outputs":[{"name":"","type":"bytes32","internalType":"bytes32"}],"stateMutability":"view"},{"type":"function","name":"allowance","inputs":[{"name":"owner","type":"address","internalType":"address"},{"name":"spender","type":"address","internalType":"address"}],"outputs":[{"name":"","type":"uint256","internalType":"uint256"}],"stateMutability":"view"},{"type":"function","name":"approve","inputs":[{"name":"spender","type":"address","internalType":"address"},{"name":"amount","type":"uint256","internalType":"uint256"}],"outputs":[{"name":"","type":"bool","internalType":"bool"}],"stateMutability":"nonpayable"},{"type":"function","name":"balanceOf","inputs":[{"name":"account","type":"address","internalType":"address"}],"outputs":[{"name":"","type":"uint256","internalType":"uint256"}],"stateMutability":"view"},{"type":"function","name":"decimals","inputs":[],"outputs":[{"name":"","type":"uint8","internalType":"uint8"}],"stateMutability":"view"},{"type":"function","name":"decreaseAllowance","inputs":[{"name":"spender","type":"address","internalType":"address"},{"name":"subtractedValue","type":"uint256","internalType":"uint256"}],"outputs":[{"name":"","type":"bool","internalType":"bool"}],"stateMutability":"nonpayable"},{"type":"function","name":"getRoleAdmin","inputs":[{"name":"role","type":"bytes32","internalType":"bytes32"}],"outputs":[{"name":"","type":"bytes32","internalType":"bytes32"}],"stateMutability":"view"},{"type":"function","name":"grantRole","inputs":[{"name":"role","type":"bytes32","internalType":"bytes32"},{"name":"account","type":"address","internalType":"address"}],"outputs":[],"stateMutability":"nonpayable"},{"type":"function","name":"hasRole","inputs":[{"name":"role","type":"bytes32","internalType":"bytes32"},{"name":"account","type":"address","internalType":"address"}],"outputs":[{"name":"","type":"bool","internalType":"bool"}],"stateMutability":"view"},{"type":"function","name":"increaseAllowance","inputs":[{"name":"spender","type":"address","internalType":"address"},{"name":"addedValue","type":"uint256","internalType":"uint256"}],"outputs":[{"name":"","type":"bool","internalType":"bool"}],"stateMutability":"nonpayable"},{"type":"function","name":"mint","inputs":[{"name":"to","type":"address","internalType":"address"},{"name":"amount","type":"uint256","internalType":"uint256"}],"outputs":[],"stateMutability":"nonpayable"},{"type":"function","name":"name","inputs":[],"outputs":[{"name":"","type":"string","internalType":"string"}],"stateMutability":"view"},{"type":"function","name":"renounceRole","inputs":[{"name":"role","type":"bytes32","internalType":"bytes32"},{"name":"account","type":"address","internalType":"address"}],"outputs":[],"stateMutability":"nonpayable"},{"type":"function","name":"revokeRole","inputs":[{"name":"role","type":"bytes32","internalType":"bytes32"},{"name":"account","type":"address","internalType":"address"}],"outputs":[],"stateMutability":"nonpayable"},{"type":"function","name":"setName","inputs":[{"name":"newName","type":"string","internalType":"string"}],"outputs":[],"stateMutability":"nonpayable"},{"type":"function","name":"setSymbol","inputs":[{"name":"newSymbol","type":"string","internalType":"string"}],"outputs":[],"stateMutability":"nonpayable"},{"type":"function","name":"supportsInterface","inputs":[{"name":"interfaceId","type":"bytes4","internalType":"bytes4"}],"outputs":[{"name":"","type":"bool","internalType":"bool"}],"stateMutability":"view"},{"type":"function","name":"symbol","inputs":[],"outputs":[{"name":"","type":"string","internalType":"string"}],"stateMutability":"view"},{"type":"function","name":"totalSupply","inputs":[],"outputs":[{"name":"","type":"uint256","internalType":"uint256"}],"stateMutability":"view"},{"type":"function","name":"transfer","inputs":[{"name":"recipient","type":"address","internalType":"address"},{"name":"amount","type":"uint256","internalType":"uint256"}],"outputs":[{"name":"","type":"bool","internalType":"bool"}],"stateMutability":"nonpayable"},{"type":"function","name":"transferFrom","inputs":[{"name":"from","type":"address","internalType":"address"},{"name":"to","type":"address","internalType":"address"},{"name":"amount","type":"uint256","internalType":"uint256"}],"outputs":[{"name":"","type":"bool","internalType":"bool"}],"stateMutability":"nonpayable"},{"type":"event","name":"Approval","inputs":[{"name":"owner","type":"address","indexed":true,"internalType":"address"},{"name":"spender","type":"address","indexed":true,"internalType":"address"},{"name":"value","type":"uint256","indexed":false,"internalType":"uint256"}],"anonymous":false},{"type":"event","name":"RoleAdminChanged","inputs":[{"name":"role","type":"bytes32","indexed":true,"internalType":"bytes32"},{"name":"previousAdminRole","type":"bytes32","indexed":true,"internalType":"bytes32"},{"name":"newAdminRole","type":"bytes32","indexed":true,"internalType":"bytes32"}],"anonymous":false},{"type":"event","name":"RoleGranted","inputs":[{"name":"role","type":"bytes32","indexed":true,"internalType":"bytes32"},{"name":"account","type":"address","indexed":true,"internalType":"address"},{"name":"sender","type":"address","indexed":true,"internalType":"address"}],"anonymous":false},{"type":"event","name":"RoleRevoked","inputs":[{"name":"role","type":"bytes32","indexed":true,"internalType":"bytes32"},{"name":"account","type":"address","indexed":true,"internalType":"address"},{"name":"sender","type":"address","indexed":true,"internalType":"address"}],"anonymous":false},{"type":"event","name":"Transfer","inputs":[{"name":"from","type":"address","indexed":true,"internalType":"address"},{"name":"to","type":"address","indexed":true,"internalType":"address"},{"name":"value","type":"uint256","indexed":false,"internalType":"uint256"}],"anonymous":false}],"bytecode":{"object":"0x60806040523480156200001157600080fd5b506040516200177e3803806200177e8339810160408190526200003491620002f4565b60405180604001604052806009815260200168736f6d65536861726560b81b81525060405180604001604052806002815260200161535360f01b8152508160039081620000829190620003b2565b506004620000918282620003b2565b5050604080518082019091526009815268736f6d65536861726560b81b602082015260069150620000c39082620003b2565b50604080518082019091526002815261535360f01b6020820152600790620000ec9082620003b2565b50620000f9338262000165565b620001066000336200022c565b620001327fa49807205ce4d355092ef5a8a18f56e8913cf4a201fbe287825b095693c21775336200022c565b6200015e7f114e74f6ea3bd819998f78687bfcb11b140da08e9b7d222fa9c1f1ba1f2aa122336200022c565b50620004a0565b6001600160a01b038216620001c05760405162461bcd60e51b815260206004820152601f60248201527f45524332303a206d696e7420746f20746865207a65726f206164647265737300604482015260640160405180910390fd5b8060026000828254620001d491906200047e565b90915550506001600160a01b038216600081815260208181526040808320805486019055518481527fddf252ad1be2c89b69c2b068fc378daa952ba7f163c4a11628f55a4df523b3ef910160405180910390a35b5050565b6200022882826200023d565b505050565b620002498282620002c7565b620002285760008281526005602090815260408083206001600160a01b03851684529091529020805460ff19166001179055620002833390565b6001600160a01b0316816001600160a01b0316837f2f8788117e7eff1d82e926ec794901d17c78024a50270940304540a733656f0d60405160405180910390a45050565b60008281526005602090815260408083206001600160a01b038516845290915290205460ff165b92915050565b6000602082840312156200030757600080fd5b5051919050565b634e487b7160e01b600052604160045260246000fd5b600181811c908216806200033957607f821691505b6020821081036200035a57634e487b7160e01b600052602260045260246000fd5b50919050565b601f8211156200023857600081815260208120601f850160051c81016020861015620003895750805b601f850160051c820191505b81811015620003aa5782815560010162000395565b505050505050565b81516001600160401b03811115620003ce57620003ce6200030e565b620003e681620003df845462000324565b8462000360565b602080601f8311600181146200041e5760008415620004055750858301515b600019600386901b1c1916600185901b178555620003aa565b600085815260208120601f198616915b828110156200044f578886015182559484019460019091019084016200042e565b50858210156200046e5787850151600019600388901b60f8161c191681555b5050505050600190811b01905550565b80820180821115620002ee57634e487b7160e01b600052601160045260246000fd5b6112ce80620004b06000396000f3fe608060405234801561001057600080fd5b506004361061014d5760003560e01c806370a08231116100c3578063a457c2d71161007c578063a457c2d7146102e1578063a9059cbb146102f4578063b84c824614610307578063c47f00271461031a578063d547741f1461032d578063dd62ed3e1461034057600080fd5b806370a082311461024757806375b238fc1461027057806382aefa241461029757806391d14854146102be57806395d89b41146102d1578063a217fddf146102d957600080fd5b8063248a9ca311610115578063248a9ca3146101c75780632f2ff15d146101ea578063313ce567146101ff57806336568abe1461020e578063395093511461022157806340c10f191461023457600080fd5b806301ffc9a71461015257806306fdde031461017a578063095ea7b31461018f57806318160ddd146101a257806323b872dd146101b4575b600080fd5b610165610160366004610dd4565b610353565b60405190151581526020015b60405180910390f35b61018261038a565b6040516101719190610e22565b61016561019d366004610e71565b61041c565b6002545b604051908152602001610171565b6101656101c2366004610e9b565b610434565b6101a66101d5366004610ed7565b60009081526005602052604090206001015490565b6101fd6101f8366004610ef0565b610458565b005b60405160128152602001610171565b6101fd61021c366004610ef0565b610482565b61016561022f366004610e71565b610505565b6101fd610242366004610e71565b610527565b6101a6610255366004610f1c565b6001600160a01b031660009081526020819052604090205490565b6101a67fa49807205ce4d355092ef5a8a18f56e8913cf4a201fbe287825b095693c2177581565b6101a67f114e74f6ea3bd819998f78687bfcb11b140da08e9b7d222fa9c1f1ba1f2aa12281565b6101656102cc366004610ef0565b61055b565b610182610586565b6101a6600081565b6101656102ef366004610e71565b610595565b610165610302366004610e71565b610610565b6101fd610315366004610f4d565b61064e565b6101fd610328366004610f4d565b610684565b6101fd61033b366004610ef0565b6106ba565b6101a661034e366004610ffe565b6106df565b60006001600160e01b03198216637965db0b60e01b148061038457506301ffc9a760e01b6001600160e01b03198316145b92915050565b60606006805461039990611028565b80601f01602080910402602001604051908101604052809291908181526020018280546103c590611028565b80156104125780601f106103e757610100808354040283529160200191610412565b820191906000526020600020905b8154815290600101906020018083116103f557829003601f168201915b5050505050905090565b60003361042a81858561070a565b5060019392505050565b60003361044285828561082e565b61044d8585856108a8565b506001949350505050565b60008281526005602052604090206001015461047381610a0d565b61047d8383610a1a565b505050565b6001600160a01b03811633146104f75760405162461bcd60e51b815260206004820152602f60248201527f416363657373436f6e74726f6c3a2063616e206f6e6c792072656e6f756e636560448201526e103937b632b9903337b91039b2b63360891b60648201526084015b60405180910390fd5b6105018282610aa0565b5050565b60003361042a81858561051883836106df565b6105229190611078565b61070a565b7f114e74f6ea3bd819998f78687bfcb11b140da08e9b7d222fa9c1f1ba1f2aa12261055181610a0d565b61047d8383610b07565b60009182526005602090815260408084206001600160a01b0393909316845291905290205460ff1690565b60606007805461039990611028565b600033816105a382866106df565b9050838110156106035760405162461bcd60e51b815260206004820152602560248201527f45524332303a2064656372656173656420616c6c6f77616e63652062656c6f77604482015264207a65726f60d81b60648201526084016104ee565b61044d828686840361070a565b60008161061c33610255565b101561063a5760405162461bcd60e51b81526004016104ee9061108b565b6106453384846108a8565b50600192915050565b7fa49807205ce4d355092ef5a8a18f56e8913cf4a201fbe287825b095693c2177561067881610a0d565b600761047d838261111f565b7fa49807205ce4d355092ef5a8a18f56e8913cf4a201fbe287825b095693c217756106ae81610a0d565b600661047d838261111f565b6000828152600560205260409020600101546106d581610a0d565b61047d8383610aa0565b6001600160a01b03918216600090815260016020908152604080832093909416825291909152205490565b6001600160a01b03831661076c5760405162461bcd60e51b8152602060048201526024808201527f45524332303a20617070726f76652066726f6d20746865207a65726f206164646044820152637265737360e01b60648201526084016104ee565b6001600160a01b0382166107cd5760405162461bcd60e51b815260206004820152602260248201527f45524332303a20617070726f766520746f20746865207a65726f206164647265604482015261737360f01b60648201526084016104ee565b6001600160a01b0383811660008181526001602090815260408083209487168084529482529182902085905590518481527f8c5be1e5ebec7d5bd14f71427d1e84f3dd0314c0f7b2291e5b200ac8c7c3b925910160405180910390a3505050565b600061083a84846106df565b905060001981146108a257818110156108955760405162461bcd60e51b815260206004820152601d60248201527f45524332303a20696e73756666696369656e7420616c6c6f77616e636500000060448201526064016104ee565b6108a2848484840361070a565b50505050565b6001600160a01b03831661090c5760405162461bcd60e51b815260206004820152602560248201527f45524332303a207472616e736665722066726f6d20746865207a65726f206164604482015264647265737360d81b60648201526084016104ee565b6001600160a01b03821661096e5760405162461bcd60e51b815260206004820152602360248201527f45524332303a207472616e7366657220746f20746865207a65726f206164647260448201526265737360e81b60648201526084016104ee565b6001600160a01b038316600090815260208190526040902054818110156109a75760405162461bcd60e51b81526004016104ee9061108b565b6001600160a01b03848116600081815260208181526040808320878703905593871680835291849020805487019055925185815290927fddf252ad1be2c89b69c2b068fc378daa952ba7f163c4a11628f55a4df523b3ef910160405180910390a36108a2565b610a178133610bc6565b50565b610a24828261055b565b6105015760008281526005602090815260408083206001600160a01b03851684529091529020805460ff19166001179055610a5c3390565b6001600160a01b0316816001600160a01b0316837f2f8788117e7eff1d82e926ec794901d17c78024a50270940304540a733656f0d60405160405180910390a45050565b610aaa828261055b565b156105015760008281526005602090815260408083206001600160a01b0385168085529252808320805460ff1916905551339285917ff6391f5c32d9c69d2a47ea670b442974b53935d1edc7fd64eb21e047a839171b9190a45050565b6001600160a01b038216610b5d5760405162461bcd60e51b815260206004820152601f60248201527f45524332303a206d696e7420746f20746865207a65726f20616464726573730060448201526064016104ee565b8060026000828254610b6f9190611078565b90915550506001600160a01b038216600081815260208181526040808320805486019055518481527fddf252ad1be2c89b69c2b068fc378daa952ba7f163c4a11628f55a4df523b3ef910160405180910390a35050565b610bd0828261055b565b61050157610bdd81610c1f565b610be8836020610c31565b604051602001610bf99291906111df565b60408051601f198184030181529082905262461bcd60e51b82526104ee91600401610e22565b60606103846001600160a01b03831660145b60606000610c40836002611254565b610c4b906002611078565b67ffffffffffffffff811115610c6357610c63610f37565b6040519080825280601f01601f191660200182016040528015610c8d576020820181803683370190505b509050600360fc1b81600081518110610ca857610ca861126b565b60200101906001600160f81b031916908160001a905350600f60fb1b81600181518110610cd757610cd761126b565b60200101906001600160f81b031916908160001a9053506000610cfb846002611254565b610d06906001611078565b90505b6001811115610d7e576f181899199a1a9b1b9c1cb0b131b232b360811b85600f1660108110610d3a57610d3a61126b565b1a60f81b828281518110610d5057610d5061126b565b60200101906001600160f81b031916908160001a90535060049490941c93610d7781611281565b9050610d09565b508315610dcd5760405162461bcd60e51b815260206004820181905260248201527f537472696e67733a20686578206c656e67746820696e73756666696369656e7460448201526064016104ee565b9392505050565b600060208284031215610de657600080fd5b81356001600160e01b031981168114610dcd57600080fd5b60005b83811015610e19578181015183820152602001610e01565b50506000910152565b6020815260008251806020840152610e41816040850160208701610dfe565b601f01601f19169190910160400192915050565b80356001600160a01b0381168114610e6c57600080fd5b919050565b60008060408385031215610e8457600080fd5b610e8d83610e55565b946020939093013593505050565b600080600060608486031215610eb057600080fd5b610eb984610e55565b9250610ec760208501610e55565b9150604084013590509250925092565b600060208284031215610ee957600080fd5b5035919050565b60008060408385031215610f0357600080fd5b82359150610f1360208401610e55565b90509250929050565b600060208284031215610f2e57600080fd5b610dcd82610e55565b634e487b7160e01b600052604160045260246000fd5b600060208284031215610f5f57600080fd5b813567ffffffffffffffff80821115610f7757600080fd5b818401915084601f830112610f8b57600080fd5b813581811115610f9d57610f9d610f37565b604051601f8201601f19908116603f01168101908382118183101715610fc557610fc5610f37565b81604052828152876020848701011115610fde57600080fd5b826020860160208301376000928101602001929092525095945050505050565b6000806040838503121561101157600080fd5b61101a83610e55565b9150610f1360208401610e55565b600181811c9082168061103c57607f821691505b60208210810361105c57634e487b7160e01b600052602260045260246000fd5b50919050565b634e487b7160e01b600052601160045260246000fd5b8082018082111561038457610384611062565b60208082526026908201527f45524332303a207472616e7366657220616d6f756e7420657863656564732062604082015265616c616e636560d01b606082015260800190565b601f82111561047d57600081815260208120601f850160051c810160208610156110f85750805b601f850160051c820191505b8181101561111757828155600101611104565b505050505050565b815167ffffffffffffffff81111561113957611139610f37565b61114d816111478454611028565b846110d1565b602080601f831160018114611182576000841561116a5750858301515b600019600386901b1c1916600185901b178555611117565b600085815260208120601f198616915b828110156111b157888601518255948401946001909101908401611192565b50858210156111cf5787850151600019600388901b60f8161c191681555b5050505050600190811b01905550565b7f416363657373436f6e74726f6c3a206163636f756e7420000000000000000000815260008351611217816017850160208801610dfe565b7001034b99036b4b9b9b4b733903937b6329607d1b6017918401918201528351611248816028840160208801610dfe565b01602801949350505050565b808202811582820484141761038457610384611062565b634e487b7160e01b600052603260045260246000fd5b60008161129057611290611062565b50600019019056fea26469706673582212204592e4706407ebde8d02b8be13dfa0a8307fde4f90c722904ccf05c306cdf45664736f6c63430008130033","linkReferences":{}},"methodIdentifiers":{"ADMIN_ROLE()":"75b238fc","DEFAULT_ADMIN_ROLE()":"a217fddf","ISSUER_ROLE()":"82aefa24","allowance(address,address)":"dd62ed3e","approve(address,uint256)":"095ea7b3","balanceOf(address)":"70a08231","decimals()":"313ce567","decreaseAllowance(address,uint256)":"a457c2d7","getRoleAdmin(bytes32)":"248a9ca3","grantRole(bytes32,address)":"2f2ff15d","hasRole(bytes32,address)":"91d14854","increaseAllowance(address,uint256)":"39509351","mint(address,uint256)":"40c10f19","name()":"06fdde03","renounceRole(bytes32,address)":"36568abe","revokeRole(bytes32,address)":"d547741f","setName(string)":"c47f0027","setSymbol(string)":"b84c8246","supportsInterface(bytes4)":"01ffc9a7","symbol()":"95d89b41","totalSupply()":"18160ddd","transfer(address,uint256)":"a9059cbb","transferFrom(address,address,uint256)":"23b872dd"},"id":10}